S01A00004D58545F4558414D504C455F5553415254312E7372656387
S214400000883240206140400011414000114140008C
S21440001011414000114140001141400000000000E5
S21440002000000000000000000000000011414000F9
S21440003011414000000000001141400011414000C5
S2144000401141400011414000D54A4000454B400018
S2144000501141400011414000114140001141400013
S2144000601141400000000000E92C4000012D4000F6
S214400070192D4000114140001141400011414000FF
S214400080312D4000492D40001141400011414000B3
S21440009011414000114140001141400011414000D3
S2144000A011414000114140001141400011414000C3
S2144000B011414000114140001141400011414000B3
S2144000C011414000114140001141400011414000A3
S2144000D01141400011414000114140001141400093
S2144000E01141400011414000114140001141400083
S2144000F01141400011414000114140001141400073
S2144001001141400011414000114140001141400062
S2144001101141400000000000000000000000000008
S2144001201141400011414000114140001141400042
S2144001301141400011414000114140001141400032
S2144001401141400011414000114140001141400022
S2144001501141400011414000114140001141400012
S214400160114140001141400010B5054C237833B989
S214400170044B13B10448AFF300800123237010BD35
S214400180B80B4020000000003C6E4A000C4B43B1C8
S2144001900C480D4910B5AFF300800C48036823B9EE
S2144001A010BD0A48036833B97047094B002BF7D097
S2144001B0BDE810401847064B002BF5D0184700BF47
S2144001C0000000003C6E4A00BC0B40203C6E4A00DB
S2144001D00000000080B483B000AF78600B467B80A0
S2144001E07A88074B1B68134343F480227B681A6067
S2144001F0002318460C37BD465DF8047B704700BFA9
S214400200D40B402080B483B000AF78600B46FB70C0
S214400210FB78002B0DD0104B1B6843F080730E4AC2
S21440022013607B681A680C4B1B681A437B681A601D
S2144002300CE0094B1B6823F08073074A13607B6809
S2144002401A68054B1B681A437B681A6000BF0C3758
S214400250BD465DF8047B7047D40B402080B485B023
S21440026000AF786039607B681B68FB60FA683B6863
S2144002701343FB60064B1B68FA681343FB607B68BE
S214400280FA681A6000BF1437BD465DF8047B7047B5
S214400290D40B402080B485B000AF7860396000232E
S2144002A0FB607B681B68FB603B68DB43FA68134077
S2144002B0FB60074B1B68FA681343FB607B68FA6871
S2144002C01A6000BF1437BD465DF8047B704700BF18
S2144002D0D40B402080B485B000AF78607B689B68C4
S2144002E0FB6002E07B689B68FB607B689A68FB6803
S2144002F09A42F7D1FB6818461437BD465DF8047B32
S214400300704780B483B000AF78607B68DB6818467F
S2144003100C37BD465DF8047B7047000080B584B05E
S21440032000AF786039607B681B6803F48033FB60FD
S2144003304FF480310D480E4B98473B68002B04D154
S2144003407B684FF0FF325A6003E03B685A1E7B687A
S2144003505A60FB68002B04D04FF480310348054BAD
S2144003609847002318461037BD4680BD30180E40CB
S214400370950240005D02400080B489B000AF7860CE
S2144003807B68FB61FB69BB61BB697B617B695B0921
S2144003903B613A690B4B13445B02DA6BFB69FB60CB
S2144003A0FB6803F01F03012101FA03F31340002BFF
S2144003B014BF01230023DBB218462437BD465DF840
S2144003C0047B70470707200080B485B000AF786094
S2144003D00023BB730023FB730EE07B685968FA7BEF
S2144003E013465B0013445B000B445A79BB7B1344B3
S2144003F0BB73FB7B0133FB737B681B689B79FA7B83
S2144004009A42EAD3BB7B18461437BD465DF8047B58
S2144004107047000080B588B000AF78600720154B65
S214400420984703461A467B681A6007F10C03002279
S2144004301A605A609A60DA601A6102233B617B68F0
S2144004401B687B610723BB617B681B7B3B777B68B4
S2144004509B6807F10C0211461846074B984703461F
S214400460002B02D04FF0FF3300E000231846203721
S214400470BD4680BDF5694000B13A400080B588B0C1
S21440048000AF78607B681B689B791A4613465B0012
S21440049013445B0018461A4B984703461A467B6837
S2144004A05A6007F10C0300221A605A609A60DA60BC
S2144004B01A6107233B7302233B617B685B687B6161
S2144004C07B681B689B791A4613465B0013445B00A7
S2144004D0BB617B681B7B3B777B689B6807F10C02A4
S2144004E011461846074B98470346002B02D04FF05C
S2144004F0FF3300E0002318462037BD4680BD00BFCE
S214400500F5694000B13A400080B584B000AF7860ED
S21440051078680D4B98470346FB73FB7B002B02D055
S21440052097F90F300BE07868084B98470346FB7303
S214400530FB7B002B02D097F90F3000E000231846D3
S2144005401037BD4680BD00BF150440007D04400006
S21440055080B584B000AF786001233B737868334B36
S21440056098470346FB72FB7A5B001846304B984729
S21440057003461A467B685A610023FB734AE0002311
S214400580BB7338E07B685968FA7B13465B001344BC
S2144005905B000B445B79002B2AD000237B731BE067
S2144005A07B685A693B7B5B00D1187B685868FA7B4E
S2144005B013465B0013445B0003441B780B707B6858
S2144005C05A693B7B5B001344BA7B5A703B7B0133D2
S2144005D03B737B7B01337B737B685968FA7B13469E
S2144005E05B0013445B000B445B797A7B9A42D7D31B
S2144005F0BB7B0133BB737B685968FA7B13465B0051
S21440060013445B000B441B79BA7B9A42BAD9FB7BF6
S2144006100133FB737B681B689B79FA7B9A42AED3A7
S214400620002318461037BD4680BD00BFC9034000B2
S214400630F569400080B485B000AF78600B46FB702B
S2144006401346BB70BB789BB21B029AB2FB789BB238
S21440065013437B817B685A007B895340FB60FB6871
S21440066003F08073002B04D0054B1B68FA68534098
S214400670FB60FB6818461437BD465DF8047B704740
S214400680ACCB400080B588B000AF786039600023BE
S214400690FB617B681B687B617B685B683B617B6852
S2144006A01B689B799BB21A46520013445B009BB270
S2144006B00733FB8100237B8310E07B8B7A691344EE
S2144006C019787B8B01337A6913441B781A46F8698C
S2144006D0204B9847F8617B8B02337B837B8B052BC3
S2144006E0EBD97B69063319783B691B781A46F8695B
S2144006F0184B9847F86101237B8310E07B8B3A695F
S214400700134419787B8B01333A6913441B781A4695
S214400710F869104B9847F8617B8B02337B837A8B62
S214400720FB89083B9A42E9DBFB89083B3A6913445C
S2144007301B7800221946F869064B9847F861FB6912
S21440074023F07F423B681A60002318462037BD4698
S21440075080BD00BF3506400080B58AB000AF7860E7
S2144007607B681B689B799BB21A46520013445B0019
S2144007709BB20733FB8407F10C0300221A605A60D1
S2144007809A60DA601A61FB8CDBB23B73FB8C1B0A07
S2144007909BB2DBB27B7302233B6107F120037B6194
S2144007A00323BB617B681B7B3B777B689B6807F1B9
S2144007B00C02114618460B4B98470346002B02D0B6
S2144007C04FF0FF3309E097F822301B0497F82120BA
S2144007D01202134397F82020134318462837BD4685
S2144007E080BD00BFB13A400080B584B000AF7860AD
S2144007F007F1080319467868084B98477868084B0D
S2144008009847F860BA68FB689A4202D06FF00303D4
S21440081000E0002318461037BD4680BD85064000E0
S2144008205907400080B485B000AF78600B467B80A7
S2144008300023FB731CE07B685968FA7B13465B0019
S21440084013445B000B44B3F801309BB27A889A425B
S2144008500BD17B685968FA7B13465B0013445B00F8
S2144008600B44DB780133DBB209E0FB7B0133FB73DF
S2144008707B681B689B79FA7B9A42DCD30023184638
S2144008801437BD465DF8047B7047000080B584B0E1
S21440089000AF78600B46FB707868104B984703466D
S2144008A0BB730023FB730EE07B685A69FB7B5B00DF
S2144008B013441B78FA789A4202D197F90F3008E031
S2144008C0FB7B0133FB73FA7BBB7B9A42ECD34FF046
S2144008D0FF3318461037BD4680BD00BFC9034000F1
S2144008E080B485B000AF78600023FB7317E07B6868
S2144008F05968FA7B13465B0013445B0019447B68D7
S2144009005868FA7B13465B0013445B000344B3F815
S21440091001309BB2A1F80130FB7B0133FB737B684F
S2144009201B689B79FA7B9A42E1D300BF1437BD46D9
S2144009305DF8047B7047000080B586B000AFF86075
S214400940B9603B601346FB71FB68BA689A60FB6807
S214400950FA791A73FB683A689A61FB6800221A6152
S214400960F8681E4B98470346FB7597F91730002BDF
S21440097002D097F917302CE0F868194B9847034691
S214400980FB7597F91730002B02D097F9173020E007
S214400990F868144B9847F868134B98470346FB751E
S2144009A097F91730002B02D097F9173011E009213C
S2144009B0F8680E4B98470346FB7597F91730B3F126
S2144009C0FF3F02D16FF0030303E0FB68FA7D1A771E
S2144009D0002318461837BD4680BD00BF09054000B5
S2144009E0E9074000E1084000510540008D084000FE
S2144009F080B485B000AF78600B46FB701346BB7082
S214400A000023FB731AE07B685968FA7B13465B0049
S214400A1013445B000B441B78FA789A420BD17B68F0
S214400A205968FA7B13465B0013445B000B44B3F8EB
S214400A3001309BB209E0FB7B0133FB737B681B688C
S214400A409B79FA7B9A42DED3002318461437BD467C
S214400A505DF8047B7047000080B58AB000AFF86050
S214400A600B467A607B8107F1140300221A605A60B5
S214400A709A60DA601A617B89DBB23B757B891B0A18
S214400A809BB2DBB27B750223BB617B68FB617B89D3
S214400A901946F8680D4B984703463B62FB681B7B3C
S214400AA087F82430FB689B6807F114021146184605
S214400AB0074B98470346002B02D04FF0FF3300E029
S214400AC0002318462837BD4680BD00BF2508400095
S214400AD0993B400080B588B000AF78600B467B807D
S214400AE013467B7007F10C0300221A605A609A6026
S214400AF0DA601A617B88DBB23B737B881B0A9BB249
S214400B00DBB27B7302233B617B1C7B610123BB61B1
S214400B107B681B7B3B777B689B6807F10C02114622
S214400B201846064B98470346002B02D04FF0FF333B
S214400B3000E0002318462037BD4680BD993B400064
S214400B4080B582B000AF78607B689B691846074BDB
S214400B509847034683F00103DBB2002B01D0012304
S214400B6000E0002318460837BD4680BD79034000A4
S214400B7080B588B000AF786039600022052178687B
S214400B80174B98470346FB8307F1080300221A6079
S214400B905A609A60DA601A61FB8BDBB23B72FB8B61
S214400BA01B0A9BB2DBB27B720223FB603B683B6155
S214400BB009237B617B681B7B3B767B689B6807F1E0
S214400BC0080211461846074B98470346002B02D0AA
S214400BD04FF0FF3300E0002318462037BD4680BD67
S214400BE0F1094000B13A400080B586B000AF786069
S214400BF0396042E007F10C0319467868254B984760
S214400C000346FB75FB7D002B02D097F917303CE07E
S214400C1007F10C03194678681F4B98470346BB7587
S214400C20BB7D092B29D13A7B7B6893F91C30DBB21C
S214400C30D31ADAB23B681A707A7B3B685A70BB7B31
S214400C401B011AB23B7C1B09DBB21BB213431BB21F
S214400C509AB23B685A80FB7B1B011AB23B7C1BB2A4
S214400C6003F00F031BB213431BB29AB23B689A8041
S214400C707A7C3B689A71002307E07868074B984770
S214400C800346002BB6D16FF0030318461837BD460F
S214400C9080BD00BF710B4000A10C4000410B4000DE
S214400CA080B483B000AF786039607B685A693B682F
S214400CB01B785B0013441B7818460C37BD465DF81E
S214400CC0047B704780B582B000AF78607B68072BA6
S214400CD031D801A252F823F0350D4000F90C4000FF
S214400CE0010D4000090D4000110D4000190D400057
S214400CF0210D40002B0D40000020114B98471AE074
S214400D0001200F4B984716E000200E4B984712E004
S214400D1010200C4B98470EE020200A4B98470AE0DC
S214400D203E210020084B984705E03E210120064B17
S214400D30984700E000BF00BF0837BD4680BD00BFF3
S214400D40612E4000CD2E40003D2F400080B582B041
S214400D5000AF78607B68072B26D801A252F823F0B4
S214400D60810D4000850D4000850D4000970D4000E8
S214400D70970D4000970D4000970D4000970D40009E
S214400D80012312E00B4B98470346002B14BF012368
S214400D900023DBB209E0084B98470346002B14BFFC
S214400DA001230023DBB200E0002318460837BD4687
S214400DB080BD00BF992E4000B52F400080B483B060
S214400DC000AF78607B68072B25D801A252F823F045
S214400DD0F10D4000F70D4000FD0D4000030E4000B1
S214400DE0070E40000B0E40000F0E4000130E400052
S214400DF04FF4FA4310E04FF400430DE04FF4004345
S214400E000AE0084B08E0084B06E0084B04E0074BB6
S214400E1002E0064B00E0002318460C37BD465DF85E
S214400E20047B704700093D0000127A00001BB700A3
S214400E3080B582B000AF0346FB7100BFFB79184611
S214400E40054B9847034683F00103DBB2002BF5D1F0
S214400E5000BF0837BD4680BD4D0D400080B586B00A
S214400E6000AFF8607A603B600B46FB727B68002BF5
S214400E7007D13B68002B04D1FB684FF470021A6020
S214400E8019E0FB7A18460E4B984702467B68B2FB41
S214400E90F3F37B617B693A6802FB03F37B613B6853
S214400EA0013B1A04074B13407A68D2B2134343F40B
S214400EB07C52FB681A6000BF1837BD4680BD00BF35
S214400EC0BD0D40000000FF0780B582B000AF7860DF
S214400ED039603B68002B08D1094B9847094A7B6824
S214400EE01B6843F00053936205E0064A7B681B6824
S214400EF043F48033D36100BF0837BD4680BD00BF92
S214400F00D12F400000060E4080B582B000AF78601A
S214400F107B68002B03D1054B9847034602E0044B01
S214400F209847034618460837BD4680BDED2F40001B
S214400F300930400080B582B000AF0346FB71FB79B4
S214400F40033B042B08D8FB791846064B9847FB7999
S214400F501846054B984700E000BF00BF0837BD461F
S214400F6080BD00BFC50C4000310E400080B582B049
S214400F7000AF786000BF7868044B98470346002B64
S214400F80F9D0002318460837BD4680BD090F4000FB
S214400F9080B500AF0620054B9847024613469B0097
S214400FA013449A001344184680BD00BFBD0D400050
S214400FB080B500AF024B98470346184680BD00BF39
S214400FC0910F400090B583B000AF1348134B98473D
S214400FD00620134B9847381D192301220621114C31
S214400FE0A0473B1D002118460F4B984700200F4B4B
S214400FF0984702200E4B984700200E4B98470E4BC2
S21440100098470E4B984703461846044B984700BFF0
S2144010100C37BD4690BD00BF000E270781424000FA
S214401020350F40005D0E4000C90E40006D0F400079
S214401030612D4000DD2D400019414000B10F4000B9
S21440104080B582B000AF78600B46FB707B68364A4E
S21440105093420AD100BFFB7819467868334B9847CD
S2144010600346002BF7D101235AE07B68304A93426F
S2144010700AD100BFFB78194678682C4B9847034640
S214401080002BF7D101234BE07B682A4A93420AD1D2
S21440109000BFFB7819467868244B98470346002BD8
S2144010A0F7D101233CE07B68234A93420AD100BF34
S2144010B0FB78194678681D4B98470346002BF7D1B6
S2144010C001232DE07B681D4A93420AD100BFFB787E
S2144010D0194678681A4B98470346002BF7D10123E8
S2144010E01EE07B68174A93420AD100BFFB78194638
S2144010F07868134B98470346002BF7D101230FE03F
S2144011007B68114A93420AD100BFFB78194678683B
S2144011100B4B98470346002BF7D1012300E00023F2
S21440112018460837BD4680BD00080E40EB3C4000E0
S214401130000A0E40001A0E40001C0E4000400240BE
S214401140513F40000080024000C0024080B584B05D
S21440115000AFF860B9607A600BE0BB681B78194650
S214401160F868084B98477B68013B7B60BB68013357
S214401170BB607B68002BF0D1002318461037BD4675
S21440118080BD00BF4110400080B483B000AF78609F
S2144011907B68072B25D801A252F823F0BD114000EA
S2144011A0C3114000C9114000CF114000D311400088
S2144011B0D7114000DB114000DF1140004FF4FA43E6
S2144011C010E04FF400430DE04FF400430AE0084BB4
S2144011D008E0084B06E0084B04E0074B02E0064BED
S2144011E000E0002318460C37BD465DF8047B704788
S2144011F000093D0000127A00001BB70080B500AF22
S2144012000620054B9847024613469B0013449A0017
S2144012101344184680BD00BF8911400080B500AF1A
S214401220024B984703465B08184680BDFD114000B8
S21440123080B483B000AF78607B6880221A6000BFBD
S2144012400C37BD465DF8047B704780B483B000AF72
S21440125078607B685B6843F001027B685A6000BF39
S2144012600C37BD465DF8047B704780B483B000AF52
S21440127078607B685B6823F002027B685A6000BF38
S2144012800C37BD465DF8047B704780B483B000AF32
S21440129078607B685B6823F004027B685A6000BF16
S2144012A00C37BD465DF8047B704780B483B000AF12
S2144012B078607B685B6803F00403002B01D0012351
S2144012C000E0002318460C37BD465DF8047B7047A7
S2144012D080B483B000AF78607B685B6843F01002F0
S2144012E07B685A6000BF0C37BD465DF8047B70478C
S2144012F080B483B000AF78607B685B6823F0800280
S2144013007B685A6000BF0C37BD465DF8047B70476B
S21440131080B483B000AF78600B467B807A887B6869
S214401320DA6000BF0C37BD465DF8047B704780B47A
S21440133083B000AF78607B689B689BB218460C37DA
S214401340BD465DF8047B704780B483B000AF7860DC
S2144013507B681B6903F00203002B01D0012300E0E9
S214401360002318460C37BD465DF8047B704780B4B2
S21440137083B000AF78607B681A6940F2012313405F
S21440138040F20122934201D1012300E00023184697
S2144013900C37BD465DF8047B7047000080B582B0D0
S2144013A000AF78600B46FB70FB789BB219467868B6
S2144013B0024B984700BF0837BD4680BD111340001A
S2144013C080B582B000AF786039607868044B984743
S2144013D00346DAB23B681A7000BF0837BD4680BD88
S2144013E02F13400080B582B000AF78607868104B0D
S2144013F0984778680F4B984778680F4B98477868B7
S2144014000E4B984778680E4B9847002178680D4BEE
S214401410984778680C4B984778680C4B984700215B
S21440142078680B4B984700BF0837BD4680BD00BF65
S21440143039354000311240004B124000D112400076
S214401440F1124000753540006B1240008B12400090
S214401450A935400090B587B000AFF860B9603B60F2
S2144014601346FB71204B98470346194638681F4B76
S21440147098470346FB82BB68196800230022F86839
S2144014801B4CA047BB681B6808221946F868194BD6
S2144014909847BB681B68FA8AD2B21946F868164B5A
S2144014A09847BB681B6808221946F868134B98474C
S2144014B0BB681968FB795B08DBB21A46F868104BC4
S2144014C09847BB681968FB7903F00103002B0CBFF3
S2144014D001230023DBB21A46F8680A4B984700BF40
S2144014E01C37BD4690BD00BF1D124000E937400086
S2144014F0833840009F37400025384000F93640008A
S21440150059364000A936400080B582B000AF7860BA
S21440151039607868104B98470346002B0AD03B68E2
S2144015201B680F2B14D83B681B68194678680B4B12
S21440153098470DE03B681B68032B09D83B681B683F
S214401540012202FA03F3DB4319467868034B9847B7
S21440155000BF0837BD4680BDAB1240007535400021
S21440156080B588B000AFF860B9607A6043F69823DB
S214401570FB610023BB6121E043F69823FB6107E053
S214401580FB695A1EFA61002B02D16FF0020319E084
S214401590F8680E4B98470346002BF1D0BA68BB69F3
S2144015A013441B78FB75FB7D1946F868084B984733
S2144015B0BB690133BB617B68013B7B607B68002B6A
S2144015C0DAD1002318462037BD4680BD4913400077
S2144015D09D13400080B588B000AFF860B9607A606F
S2144015E043F69823FB610023BB6138E043F698231B
S2144015F0FB6107E0FB695A1EFA61002B02D16FF0CF
S214401600020330E0F8681A4B98470346002BF1D0A7
S214401610FF21F868174B984743F69823FB6107E08D
S214401620FB695A1EFA61002B02D16FF002031AE0E2
S214401630F868114B98470346002BF1D007F1170383
S2144016401946F8680D4B9847BA68BB691344FA7D4B
S2144016501A70BB690133BB617B68013B7B607B686A
S214401660002BC3D1002318462037BD4680BD00BF9F
S214401670491340009D1340006F134000C1134000C3
S21440168080B586B000AFF860B9607A6000237B61B1
S214401690FB68002B12D04FF0FF3313E00B4B1B6858
S2144016A00B4A1268B96810469847BB680133BB605E
S2144016B07B6901337B617B68013B7B607B68002BE9
S2144016C0ECDC7B6918461837BD4680BD401240208A
S2144016D04812402080B586B000AFF860B9607A60A6
S2144016E000237B61FB68012B1ED0FB68022B1BD0BE
S2144016F0FB68032B18D04FF0FF3319E00E4B1A68E7
S2144017000E4B1868BB68591CB9601B781946904741
S2144017100346002B02DA4FF0FF3309E07B690133C2
S2144017207B617B68013B7B607B68002BE6D17B69F5
S21440173018461837BD4680BD441240204812402007
S21440174080B400AFBFF34F8FBFF36F8F094B0022BB
S214401750C3F85022074A074B5B6943F40033536192
S214401760BFF34F8FBFF36F8F00BFBD465DF8047B5E
S214401770704700BF00ED00E080B48BB000AF264B52
S214401780D3F88030FB61FB695B0BC3F30E037B62CF
S214401790FB6903F007030433BB61FB69DB08C3F353
S2144017A009037B617B69BB60BB68B3FA83F37B60EC
S2144017B07B68DBB203F01F033B61BFF34F8F7B694F
S2144017C03B623A6A3B6902FA03F319467A6ABB6996
S2144017D002FA03F30B43FB600F4AFB68C2F8603221
S2144017E03B6A5A1E3A62002BEBD17B6A5A1E7A62DB
S2144017F0002BE4D1BFF34F8F074A074B5B6943F496
S21440180080335361BFF34F8FBFF36F8F00BF2C37CA
S214401810BD465DF8047B704700ED00E080B582B0C1
S21440182000AF78607868034B984700BF0837BD46DE
S21440183080BD00BF2530400080B500AF0A20084B71
S21440184098470B20064B98470C20054B984710208E
S214401850034B98471120024B984700BF80BD00BFFE
S2144018601D18400080B489B000AF78607B68FB618B
S214401870FB69BB61BB695A09FB697B617B6903F005
S2144018801F03012101FA03F33A61FB603B69BB6029
S214401890BA68064B13445B021A46FB68536000BFA7
S2144018A02437BD465DF8047B704700BF070720001D
S2144018B080B48DB000AF786039607B68FB623B686F
S2144018C0BB62FB6A7B627B6A5A09FB6A3B623B6A85
S2144018D003F01F03012101FA03F3FA61BB61BB6AFF
S2144018E07B61FB693B613A69374B13445B02FB60A3
S2144018F07B6903F00803002B03D0FB68BA695A667D
S21440190002E0FB68BA691A667B6903F01003002B95
S21440191004D0FB68BA69C3F8942003E0FB68BA6950
S214401920C3F890207B6903F02003002B03D0FB68AC
S214401930BA691A6502E0FB68BA695A657B6903F0C2
S214401940C003002B03D0FB68BA691A6202E0FB684A
S214401950BA695A627B6903F08003002B04D0FB68A7
S214401960BA69C3F8842003E0FB68BA69C3F88020EC
S2144019707B6903F00103002B06D0FB681A6FBB6936
S2144019801A43FB681A6706E0FB681A6FBB69DB43BD
S2144019901A40FB681A677B6903F00203002B06D0E7
S2144019A0FB685A6FBB691A43FB685A6706E0FB68D8
S2144019B05A6FBB69DB431A40FB685A6700BF34372F
S2144019C0BD465DF8047B70470707200080B48DB0A5
S2144019D000AF78600B46FB707B68FB62FB7887F84D
S2144019E02B30FB6A7B627B6A3B623B6A5B09FB612E
S2144019F0FA69174B13445B02BB6197F82B30012BF7
S214401A0009D1FB6A7B617B6903F01F0301229A4080
S214401A10BB691A610CE097F82B30002B08D1FB6AA3
S214401A203B613B6903F01F0301229A40BB695A6140
S214401A30FB6AFB60FB6803F01F0301229A40BB6908
S214401A40C3F8A02000BF3437BD465DF8047B70471E
S214401A500707200080B48BB000AF78600B46FB7061
S214401A607B687B62FB7887F823307B6AFB61FB6987
S214401A70BB61BB695B097B617A69104B13445B02AF
S214401A803B6197F82330002B09D07B6AFB60FB68EC
S214401A9003F01F0301229A403B691A6308E07B6A01
S214401AA0BB60BB6803F01F0301229A403B695A6340
S214401AB000BF2C37BD465DF8047B70470707200003
S214401AC080B48DB000AF78600B46FB707B68FB62DD
S214401AD0FB7887F82B30FB6A7B627B6A5A09FB6A85
S214401AE03B623B6A03F01F03012101FA03F3FA61EC
S214401AF0BB6197F82B30FB75FB693B613A69234B1A
S214401B0013445B02FB60FB7D013B032B2ED801A2F6
S214401B1052F823F0491B40005B1B4000251B400049
S214401B20371B4000FB68BA69C3F8C420FB68BA6933
S214401B30C3F8D0201FE0FB68BA69C3F8C420FB682E
S214401B40BA69C3F8D42016E0FB68BA69C3F8C02067
S214401B50FB68BA69C3F8D0200DE0FB68BA69C3F8E1
S214401B60C020FB68BA69C3F8D42004E0FB68BA69B1
S214401B70C3F8B42003E0FB68BA69C3F8B02000BFDE
S214401B803437BD465DF8047B704700BF070720002A
S214401B9080B400AFBFF34F8FBFF36F8F0C4A0C4B30
S214401BA0D3F8903223F00103C2F89032084A084B2B
S214401BB0D3F8943223F00103C2F89432BFF34F8F28
S214401BC0BFF36F8F00BFBD465DF8047B704700BF14
S214401BD000ED00E098B500AF5E4B4FF400425A600F
S214401BE05D4B98475D4B98475D4B5E4A5A605C4BF1
S214401BF05D4A5A605D4B98475D4B984701214820A7
S214401C005C4B9847012148205B4B984700210B20AE
S214401C10584B984788210B20584B984702210B2059
S214401C20574B984700211520544B98471520554B45
S214401C309847554A544BD3F8143143F01003C2F832
S214401C401431032124204D4B984724204D4B984770
S214401C5000210320494B984703204A4B98470021D0
S214401C600420464B98470420464B984700234FF4A1
S214401C7000524FF060514548454CA04700234FF076
S214401C8080424FF060514148414CA0470123FF221B
S214401C904FF000613D483E4CA04701233F224FF0A5
S214401CA000613C483A4CA04701234FF4C0324FF005
S214401CB000613948364CA04701234FF480724FF0FC
S214401CC000613248324CA04701234FF400624FF087
S214401CD000612E482E4CA04701234FF400224FF0BF
S214401CE000612E482A4CA04700234FF400724FF064
S214401CF080512648264CA0474FF400712348284B75
S214401D0098474FF080517420264B98474FF08051AB
S214401D107520244B98474FF080517620214B9847AA
S214401D204FF080517B201F4B98474FF06051182052
S214401D301C4B98474FF0605106201A4B98474FF07F
S214401D4060515320174B98475320174B984700BF76
S214401D5098BD00BF50180E4041174000791740000C
S214401D60000C0E400C08005A0C07005A911B40000D
S214401D7039184000CD194000551A4000B1184000AF
S214401D80C11A4000651840000080084000120E400E
S214401D90BD27400000160E40000E0E4000140E40B8
S214401DA091254000BD2940005D29400080B483B0A5
S214401DB000AF78607B6801221A6000BF0C37BD46D2
S214401DC05DF8047B704780B483B000AF78603960BC
S214401DD07B683A685A6100BF0C37BD465DF8047BA5
S214401DE07047000090B583B000AF06200A4B984776
S214401DF0002303222C210948094CA04700237B607E
S214401E0002E07B6801337B607B68FE2BF9D900BF1C
S214401E100C37BD4690BD00BF8D2940000080004075
S214401E20D935400080B584B000AF78603960062070
S214401E30094B98473A6879680848094B9847002301
S214401E40FB6002E0FB680133FB60FB68FE2BF9D9C0
S214401E5000BF1037BD4680BD5D2940000080004071
S214401E606115400090B587B000AF0346B9607A6010
S214401E70FB730620144B9847FB7B99B20023032242
S214401E801248134CA04700237B6102E07B69013374
S214401E907B617B69FE2BF9D97B68002B10D006202E
S214401EA00C4B98477A68B96808480B4B984700230C
S214401EB07B6102E07B6901337B617B695E2BF9D9EC
S214401EC000BF1C37BD4690BD8D29400000800040B5
S214401ED0D93540005D2940006115400080B584B08A
S214401EE000AF0023BB608123BB7000237B700323BD
S214401EF0FB6048E0BB1C01221946FB20264B984756
S214401F00BB780133DBB2BB7000237B6002E07B68AA
S214401F1001337B607B68FE2BF9D900220021D32059
S214401F201D4B984706201D4B9847FB1C012219461F
S214401F301B481C4B984700237B6002E07B680133BC
S214401F407B607B68FE2BF9D9FB781A46FB68013B21
S214401F50DB0002FA03F31A46BB681343BB607B1CE4
S214401F6001221946FB200C4B984700237B6002E079
S214401F707B6801337B607B6840F6FE729342F7D9FC
S214401F80FB68013BFB60FB68002BB3D1BB6818467F
S214401F901037BD4680BD00BF651E40005D2940002D
S214401FA000800040D515400080B485B000AF786012
S214401FB00023FB600CE00023FB6002E0FB6801337B
S214401FC0FB60FB68074A9342F8D9FB680133FB6025
S214401FD0FA687B689A42EED300BF1437BD465DF878
S214401FE0047B70479F86010080B487B000AFF860DE
S214401FF0B9607A603B60FB681B68B3F5F07F03D33B
S214402000FB6840F2DF121A607B681B68B3F5F07F0E
S21440201003D37B6840F2DF121A60BB681B68B3F5D7
S214402020A07F03D3BB6840F23F121A603B681B6830
S214402030B3F5A07F03D33B6840F23F121A60FB68BB
S2144020401A687B681B689A4209D9FB681B687B61E3
S2144020507B681A68FB681A607B687A691A60BB6896
S2144020601A683B681B689A4209D9BB681B687B6143
S2144020703B681A68BB681A603B687A691A6000BF9A
S2144020801C37BD465DF8047B7047000080B584B0C1
S21440209000AF0346FB71FB79002B02D0E823FB73AD
S2144020A001E04823FB7307F10F030122194636204F
S2144020B0024B984700BF1037BD4680BD651E4000A6
S2144020C090B587B000AF0446084611461A462346E8
S2144020D0FB800346BB800B467B8013463B80002339
S2144020E07B6104237B61FB887B827A88FB88134470
S2144020F09BB2013B9BB23B82BB88FB813A88BB8844
S21440210013449BB2013B9BB2BB8107F112035B7841
S2144021103B7207F112031B787B7207F110035B7862
S214402120BB7207F110031B78FB7207F108037A694C
S21440213019462A20134B9847002200210020114BB5
S214402140984707F10E035B783B7207F10E031B7846
S2144021507B7207F10C035B78BB7207F10C031B78AC
S214402160FB7207F108037A6919462B20054B9847FE
S214402170002200210020034B984700BF1C37BD4675
S21440218090BD00BF651E400090B589B002AF786034
S2144021900323FB604348444B984707F10C01002358
S2144021A00093424B03223F48414CA0470022032164
S2144021B03C48404B984707F10C03194639483E4B7C
S2144021C0984738483D4B9847012136483C4B9847FE
S2144021D00022002101203B4B9847C8203A4B9847A5
S2144021E0002200211120374B9847C820364B98478D
S2144021F0364B984778617B6949F28842934201D0D2
S21440220001234AE04823FB7407F1130301221946D1
S21440221036202C4B984764202B4B98470423FB745E
S21440222007F1130301221946CF20264B9847642016
S214402230254B98470623FB7407F1130301221946E2
S2144022403A20204B984764201F4B98470022002195
S21440225013201C4B984764201B4B98471C4B9847B1
S2144022606420194B984701201A4B98476420164B18
S21440227098477B681B689AB27B685B689BB2002174
S2144022800020154CA0477B689B681846134B984720
S21440229000210020124B9847002318461C37BD46A5
S2144022A090BD00BF00800040E5134000002D310186
S2144022B055144000F936400009154000AD1D400059
S2144022C0C71D4000651E4000A91F4000DD1E40009F
S2144022D0E52240008D204000C1204000FD22400005
S2144022E05123400080B500AF002200212920024B38
S2144022F0984700BF80BD00BF651E400080B485B0D3
S21440230000AF78600023FB6016E0FB685A1CFA605A
S2144023107A68120CD1B20D4AD154FB685A1CFA6046
S2144023207A68120AD1B2094AD154FB685A1CFA603C
S2144023307A68D1B2054AD154FB68B3F5B46FE4D39A
S21440234000BF1437BD465DF8047B7047D80B40206D
S21440235080B584B000AF03460A46FB801346BB8078
S2144023600023FB600423FB60BB1D5B783B72BB1DF8
S2144023701B787B72BB1D5B78BB72BB1D1B78FB72E8
S21440238007F10803FA6819462A20114B984700229D
S214402390002100200E4B98473B1D5B783B723B1D4F
S2144023A01B787B723B1D5B78BB723B1D1B78FB72B8
S2144023B007F10803FA6819462B20054B9847002278
S2144023C000210020024B984700BF1037BD4680BD15
S2144023D0651E400090B587B000AFF860B9607A607F
S2144023E03B603B463A1D07F1080107F10C002A4CBA
S2144023F0A047FB6898B2BB6899B27B689AB2FB6804
S2144024009BB2D31A9BB201339CB23B689AB2BB686C
S2144024109BB2D31A9BB201339BB222461F4CA047B5
S2144024201F4B98477A68FB68D31A01333968BA68F5
S2144024308A1A013202FB03F33B613B69194AA2FB4D
S21440244003231B0A7B6104E04FF4B4611648174B24
S21440245098477B695A1E7A61002BF5D13969114B32
S214402460A3FB01231A0A13461B019B1A5B01CA1AD7
S21440247013465B00134419460B480C4B98474FF4E1
S214402480A0734FF4F07200210020044CA04700BF18
S2144024901C37BD4690BD00BFE91F4000C12040002C
S2144024A0E51D400089888888D80B4020251E4000BE
S2144024B090B58BB000AFF860B9607A603B60FB685F
S2144024C03B62BB68FB61FA687B681344013BBB61B7
S2144024D0BA683B681344013B7B6107F1140307F17C
S2144024E0180207F11C0107F120001B4CA0473B6A6D
S2144024F098B2FB6999B2BB699AB23B6A9BB2D31A4F
S2144025009BB201339CB27B699AB2FB699BB2D31AE9
S2144025109BB201339BB22246104CA047BA693B6A35
S214402520D31A7969FA698A1A02FB03F37B627A6ADC
S21440253013465B0013441A46B96B2C20084B984749
S2144025404FF4A0734FF4F07200210020034CA047D4
S21440255000BF2C37BD4690BDE91F4000C12040005B
S214402560651E400080B485B000AFF860B9607A6000
S2144025707B68002B03D0FB68BA685A6602E0FB68AB
S214402580BA681A6600BF1437BD465DF8047B7047CC
S21440259080B483B000AF786039607B683A681A636D
S2144025A000BF0C37BD465DF8047B704780B483B0EF
S2144025B000AF786039607B683A685A6300BF0C3772
S2144025C0BD465DF8047B704780B487B000AFF860C6
S2144025D0B9607A60FB687A685A64BB68B3F1C05FDA
S2144025E04AD0B3F1C05F08D8B3F1006F16D0B3F14C
S2144025F0805F2CD0002B69D064E0B3F1205F65D0BB
S214402600B3F1205F03D8B3F1005F4AD05AE0B3F18C
S214402610405F5BD0B3F1605F58D053E0FB681B6F00
S2144026207B61FB681A6F7B68D9437B690B401A4015
S214402630FB681A67FB685B6F7B61FB685A6F7B6859
S214402640D9437B690B401A40FB685A673AE0FB68FF
S2144026501B6F7B617A687B691A43FB681A67FB6865
S2144026605B6F7B61FB685A6F7B68D9437B690B4025
S2144026701A40FB685A6725E0FB681B6F7B61FB6866
S2144026801A6F7B68D9437B690B401A40FB681A6710
S214402690FB685B6F7B617A687B691A43FB685A67A5
S2144026A010E0FB681B6F7B617A687B691A43FB68A6
S2144026B01A67FB685B6F7B617A687B691A43FB68C5
S2144026C05A6700BFFB687A685A6000E000BF1C3754
S2144026D0BD465DF8047B704780B584B000AFF860B7
S2144026E0B9607A60B968F868194B98477B6803F018
S2144026F001031A46B968F868164B98477B6803F09A
S2144027000A03002B03D0FB68BA681A6202E0FB6833
S214402710BA685A627B6803F00203002B04D0FB6859
S214402720BA68C3F8802008E07B6803F00803002BF3
S21440273003D0FB68BA68C3F88420FB68BA685A615D
S214402740FB68BA681A6000BF1037BD4680BD00BF40
S214402750112940006525400080B584B000AFF86080
S214402760B9607A603B60B968F868124B9847BA69B6
S214402770B968F868104B98473B68002B03D0FB6855
S214402780BA681A6502E0FB68BA685A657B68002B2F
S21440279003D0FB68BA681A6302E0FB68BA685A63FB
S2144027A0FB68BA681A61FB68BA681A6000BF1037DF
S2144027B0BD4680BD112940006525400090B587B0D4
S2144027C002AFF860B9607A603B60BB68B3F1005F07
S2144027D016D0B3F1005F09D8B3F1805F10D0B3F1E3
S2144027E0C05F0DD0B3F1006F0AD03DE0B3F1405F5B
S2144027F01AD0B3F1605F17D0B3F1205F0ED033E04C
S2144028007A68B968F8681C4B98473B6803F0010340
S2144028101A467968F868194B984727E03A68796805
S214402820F868174B984721E0BB68B3F1605F0CBF70
S21440283001230023DBB21A463B6803F00403002B57
S21440284014BF01230023DBB219463B6803F00103A3
S214402850002B14BF01230023DBB200930B4679689C
S214402860F868084CA04701E0002300E00123184622
S2144028701437BD4690BD00BFC925400065254000C1
S214402880D92640005927400080B485B000AFF86094
S214402890B9607A607B6803F01003002B20D0FB6899
S2144028A0BA68C3F8B0207B6803F02003002B04D03E
S2144028B0FB68BA68C3F8D42003E0FB68BA68C3F87C
S2144028C0D0207B6803F04003002B04D0FB68BA6836
S2144028D0C3F8C02008E0FB68BA68C3F8C42003E029
S2144028E0FB68BA68C3F8B42000BF1437BD465DF82D
S2144028F0047B704780B483B000AF786039607B68F3
S2144029003A681A6400BF0C37BD465DF8047B7047D2
S21440291080B483B000AF786039607B683A685A64A8
S21440292000BF0C37BD465DF8047B704780B483B06B
S21440293000AF78607B68DB6C18460C37BD465DF8A8
S214402940047B704780B483B000AF78607B689B6C34
S21440295018460C37BD465DF8047B704780B584B09A
S21440296000AF78607868084B9847F8607B6803F05B
S2144029701F03012202FA03F31A46FB681A6300BFDC
S2144029801037BD4680BD00BF6D2B400080B584B07B
S21440299000AF78607868084B9847F8607B6803F02B
S2144029A01F03012202FA03F31A46FB685A6300BF6C
S2144029B01037BD4680BD00BF6D2B400090B587B038
S2144029C002AF786039607868634B9847F8603B6838
S2144029D003F0F043B3F1005F67D0B3F1005F09D86E
S2144029E0B3F1805F2BD0B3F1C05F43D0B3F1006F3B
S2144029F00AD0A9E0B3F1405F7ED0B3F1605F7BD0F0
S214402A00B3F1205F6CD09FE07B6803F01F03012288
S214402A1002FA03F31A464FF00061F8684F4B9847A6
S214402A207B6803F01F03012202FA03F319463B6852
S214402A3003F001031A46F868494B984786E07B68DE
S214402A4003F01F03012202FA03F31A464FF08051A7
S214402A50F868424B98477B6803F01F03012202FA4E
S214402A6003F319463B6803F001031A46F8683C4BEB
S214402A7098476BE07B6803F01F03012202FA03F3DA
S214402A801A464FF0C051F868344B98477B6803F0BD
S214402A901F03012202FA03F319463B6803F00103C1
S214402AA01A46F8682E4B984750E07B6803F01F03A1
S214402AB0012202FA03F31A464FF00051F868274BFA
S214402AC098477B6803F01F03012202FA03F3194676
S214402AD03B6803F001031A46F868214B984735E0F7
S214402AE07B6803F01F03012202FA03F33A68194693
S214402AF0F8681C4B984729E07B6803F01F030122C7
S214402B0002FA03F319463B6803F06053B3F1605F83
S214402B100CBF01230023DBB21A463B6803F00403D4
S214402B20002B14BF01230023DBB218463B6803F09A
S214402B300103002B14BF01230023DBB2009303469E
S214402B40F868094CA04701E0002300E0012318463E
S214402B501437BD4690BD00BF6D2B4000C9254000D0
S214402B6065254000D92640005927400080B485B0EE
S214402B7000AF78607B685A09054B13445B02FB60E4
S214402B80FB6818461437BD465DF8047B704700BFA7
S214402B900707200080B584B000AF78603960786859
S214402BA0264B9847F8607868254B98470246FB685E
S214402BB01340FB60FB68002B3CD00023BB6034E036
S214402BC0204ABB681B0113441A683B689A4226D1C8
S214402BD01C4ABB681B01134404331A68FB68134045
S214402BE0002B1CD0174ABB681B0113440C331B68D0
S214402BF01449BA6812010A4410681249BA681201A8
S214402C000A4404321268114698470E4ABB681B01B4
S214402C10134404331B68DB43FA681340FB60BB680D
S214402C200133BB60BB68062B03D8FB68002BC7D1BB
S214402C3000E000BF00BF1037BD4680BD2D294000D4
S214402C40452940007811402080B586B000AFF86036
S214402C50B9607A603B60214B1B68062B01D9012383
S214402C6038E00023FB7511E0FB7D1B011C4A134432
S214402C703B613B691A68BB689A4204D13B695A6813
S214402C807B689A4208D0FB7D0133FB75FA7D134B77
S214402C901B689A42E8D900E000BF3B69BA681A60F0
S214402CA03B697A685A603B693A689A603B693A6A17
S214402CB0DA60FA7D094B1B6801339A4204D1074B10
S214402CC01B680133054A13603A687968F868054B13
S214402CD09847002318461837BD4680BDE811402067
S214402CE0781140208928400080B500AF0A2102486C
S214402CF0024B984700BF80BD000E0E40952B40000B
S214402D0080B500AF0B210248024B984700BF80BDFC
S214402D1000100E40952B400080B500AF0C210248B5
S214402D20024B984700BF80BD00120E40952B4000D6
S214402D3080B500AF10210248024B984700BF80BDC7
S214402D4000140E40952B400080B500AF112102487C
S214402D50024B984700BF80BD00160E40952B4000A2
S214402D6080B483B000AF78607B68013B032B1AD8F1
S214402D7001A252F823F000BF892D40008F2D40005D
S214402D80972D40009F2D400000237B600EE04FF4BF
S214402D9080737B600AE04FF440737B6006E04FF43C
S214402DA000737B6002E000237B6000BF0A490A4B49
S214402DB01B6B23F440727B6813430B6300BF064BC8
S214402DC09B6E03F00803002BF9D000BF0C37BD46BE
S214402DD05DF8047B704700BF00060E4080B485B0A7
S214402DE000AF78601D491D4B1B6B23F070027B685B
S214402DF013430B634FF48053FB6007E0FB68002BE4
S214402E0001D1012323E0FB68013BFB60134B9B6E23
S214402E1003F00803002BF1D0104A104B1B6B23F035
S214402E20030343F0020313634FF48053FB6007E051
S214402E30FB68002B01D1012309E0FB68013BFB60E6
S214402E40064B9B6E03F00803002BF1D00023184678
S214402E501437BD465DF8047B704700BF00060E4041
S214402E6080B483B000AF78607B68012B05D10749FA
S214402E70064B9A68064B13438B60044B054A1A6010
S214402E8000BF0C37BD465DF8047B704710180E40F7
S214402E90000010A5080000A580B400AF094B5B6990
S214402EA003F08003002B07D0074B9B6E03F0800394
S214402EB0002B01D0012300E000231846BD465DF8F4
S214402EC0047B704710180E4000060E4080B483B056
S214402ED000AF78601549154B1A6A154B13430B62C1
S214402EE000BF124B9B6E03F40033002BF9D00F4902
S214402EF00E4B1A6A0F4B13407A68134343F45C1325
S214402F000B6200BF094B9B6E03F40033002BF9D0D5
S214402F100649064B1A6A084B134043F45C130B628F
S214402F2000BF0C37BD465DF8047B704700060E4078
S214402F30080037008FFFC8FFFFFFC8FE80B483B08D
S214402F4000AF786039607B68002B08D01349134B7C
S214402F501B6A134A1A40134B13430B6218E00F497F
S214402F600E4B1A6A104B13403A68120292B21A433A
S214402F700E4B13430B6200BF084B9B6E03F00103DE
S214402F80002BF9D00549054B1A6A094B13430B62CF
S214402F9000BF0C37BD465DF8047B704700060E4008
S214402FA0FCFFC8FE02003701FCFFC8FF01003700E7
S214402FB00000370180B400AF044B9B6E03F48033AF
S214402FC01846BD465DF8047B704700BF00060E40BD
S214402FD080B400AF044B4FF000529A6200BFBD462B
S214402FE05DF8047B704700BF00060E4080B400AF1B
S214402FF0044B9B6E03F002031846BD465DF8047B07
S214403000704700BF00060E4080B400AF044B9B6E76
S21440301003F040031846BD465DF8047B704700BF8A
S21440302000060E4080B485B000AF78600B4A7B68DF
S21440303003F07F03C2F80C31084BD3F80C3143F051
S2144030401023FB60054AFB68C2F80C310023184683
S2144030501437BD465DF8047B704700BF00060E403F
S21440306080B483B000AF786039603B68002B06D0F0
S2144030707B685B6843F001027B685A6005E07B68CA
S2144030805B6823F001027B685A6000BF0C37BD4680
S2144030905DF8047B704780B483B000AF78603960D9
S2144030A07B683A681A6200BF0C37BD465DF8047B01
S2144030B0704780B487B000AFF860B9607A603B6014
S2144030C0FB689B687B6102E0FB689B687B61FB68F2
S2144030D09A687B699A42F7D1BB68002B1CD07B6903
S2144030E01B0C03F03F033B613B691A0913469B00E8
S2144030F013445B001A463B6903F00F031A44BB684F
S2144031001A607B6903F48003002B05D0BB681B68FC
S21440311003F10C02BB681A607B68002B11D07B69F8
S2144031201B0A03F07F033B613B691A0913469B0069
S21440313013445B001A463B6903F00F031A447B684E
S2144031401A603B68002B10D07B6903F07F033B611D
S2144031503B691A0913469B0013445B001A463B69B9
S21440316003F00F031A443B681A6000BF1C37BD4685
S2144031705DF8047B7047000080B487B000AFF8600D
S214403180B9607A603B6000237B61FB685B6803F054
S2144031900103012B09D1BB680C2B06D9BB680C3B3D
S2144031A0BB607B6943F480037B61BB68334AA2FB08
S2144031B00323DB081805B968304BA3FB0123DA0864
S2144031C013469B0013445B00CA1A130403437A69F0
S2144031D013437B617B68294AA2FB0323DB08180361
S2144031E07968264BA3FB0123DA0813469B00134459
S2144031F05B00CA1A130203437A6913437B613B6838
S2144032001E4AA2FB0323DB08180139681B4BA3FBAD
S2144032100123DA0813469B0013445B00CA1A40EAAF
S21440322002037A6913437B6100BFFB689B6903F026
S2144032300403042BF9D1FB681B6843F00102FB68CA
S2144032401A6000BFFB689B6903F00103012BF9D1AC
S214403250FB680122DA61FB687A699A60FB681B6842
S21440326023F00102FB681A60FB68DB6A03F0010387
S21440327018461C37BD465DF8047B7047CDCCCCCC99
S21440328080B487B000AFF860B9607A603B600023D6
S2144032907B61BB68002B24D0FB685B6803F00103AE
S2144032A0012B09D17B680C2B06D97B680C3B7B60D5
S2144032B07B6943F480037B617B682E4AA2FB032331
S2144032C0DB08180579682B4BA3FB0123DA08134665
S2144032D09B0013445B00CA1A130403437A691343E2
S2144032E07B613B68002B14D03B6A224AA2FB032337
S2144032F0DB081803396A1F4BA3FB0123DA08134681
S2144033009B0013445B00CA1A130203437A691343B3
S2144033107B617B6A002B14D0BB6A164AA2FB032350
S214403320DB081801B96A134BA3FB0123DA081346DE
S2144033309B0013445B00CA1A40EA02037A691343AF
S2144033407B61FB681A690C4B1340FA681361FB6893
S2144033507A691A61FB681A69084B1343FA68136165
S214403360FB68DB6A03F0040318461C37BD465DF86D
S214403370047B7047CDCCCCCC7F7F7FFF80808000A5
S21440338080B487B000AFF860B9607A603B600023D5
S2144033907B61BB68474AA2FB03239B091801BB68B5
S2144033A0454AA2FB03235909444BA3FB0123DA08F1
S2144033B013469B0013445B00CA1A40EA02037A692C
S2144033C013437B61BB683D4AA2FB0323D9083B4BB2
S2144033D0A3FB0123DA0813469B0013445B00CA1A7A
S2144033E01003B968354BA3FB0123DA0813469B004C
S2144033F013445B00CA1A130203437A6913437B6182
S2144034007B682E4AA2FB0323DB08180579682B4B02
S214403410A3FB0123DA0813469B0013445B00CA1A39
S214403420130403437A6913437B613B6A5B057A69FD
S21440343013437B613B68214AA2FB0323DB08180742
S21440344039681E4BA3FB0123DA0813469B0013443E
S2144034505B00CA1A130603437A6913437B6100BFB5
S214403460FB689B6903F00403042BF9D1FB681B68D7
S21440347043F00202FB681A6000BFFB689B6903F0DA
S2144034800103012BF9D1FB680122DA61FB687A69F6
S214403490DA60FB681B6823F00202FB681A60FB6870
S2144034A0DB6A03F0020318461C37BD465DF8047B12
S2144034B0704700BFD34D62101F85EB51CDCCCCCCAE
S2144034C080B483B000AF78607B689B6918460C3741
S2144034D0BD465DF8047B704780B483B000AF78602B
S2144034E039607B683A68DA6100BF0C37BD465DF8E4
S2144034F0047B704780B483B000AF78607B685B68BD
S21440350003F00203002B01D0012300E000231846FD
S2144035100C37BD465DF8047B7047000080B582B02E
S21440352000AF78607868034B984700BF0837BD46C1
S21440353080BD00BF2530400080B582B000AF7860C7
S2144035407B68094A934203D11520084B984706E00A
S2144035507B68074A934202D12A20044B984700BF13
S2144035600837BD4680BD00BF008000401D35400086
S2144035700080054080B483B000AF786039607B68D7
S2144035805B6823F470227B685A607B685A683B68A5
S2144035901B0403F470231A437B685A6000BF0C3741
S2144035A0BD465DF8047B704780B483B000AF78605A
S2144035B039607B685B6823F07F427B685A607B6833
S2144035C05A683B681B061A437B685A6000BF0C3734
S2144035D0BD465DF8047B704780B584B000AF786028
S2144035E0084611461A4603467B800B467B701346B8
S2144035F03B7043F69823FB6006E0FB685A1EFA6071
S214403600002B01D1012320E07B681B6903F00203F5
S214403610002BF2D078680F4B98470346002B0ED00D
S2144036207A887B781B0403F470231343BB603B7893
S214403630002B06D0BB6843F08073BB6001E07B88FC
S214403640BB607B68BA68DA60002318461037BD4610
S21440365080BD00BFF534400080B485B000AFF86050
S214403660B9607A607B68002B0CD0FB68BA680C3275
S21440367053F8223043F00101FB68BA680C3243F835
S21440368022100BE0FB68BA680C3253F8223023F065
S2144036900101FB68BA680C3243F8221000BF1437A9
S2144036A0BD465DF8047B704780B485B000AFF860D7
S2144036B0B9607A607B68002B0CD0FB68BA680C3225
S2144036C053F8223043F00201FB68BA680C3243F8E4
S2144036D022100BE0FB68BA680C3253F8223023F015
S2144036E00201FB68BA680C3243F8221000BF143758
S2144036F0BD465DF8047B704780B485B000AFF86087
S214403700B9607A607B68042B18D1FB68BA680C32C3
S21440371053F8223023F00801FB68BA680C3243F8AD
S2144037202210FB68BA680C3253F8223043F004018A
S214403730FB68BA680C3243F822102AE07B68002BFC
S21440374018D1FB68BA680C3253F8223023F00801CF
S214403750FB68BA680C3243F82210FB68BA680C3231
S21440376053F8223023F00401FB68BA680C3243F861
S21440377022100EE07B68082B0BD1FB68BA680C322F
S21440378053F8223043F00801FB68BA680C3243F81D
S214403790221000BF1437BD465DF8047B704780B4E6
S2144037A085B000AFF860B9607A60FB68BA680C32E2
S2144037B053F8223023F0F001FB68BA680C3243F825
S2144037C02210FB68BA680C3253F822207B6842EA23
S2144037D00301FB68BA680C3243F8221000BF143766
S2144037E0BD465DF8047B704780B485B000AF786016
S2144037F039603A687B6813445A1E7B68B2FBF3F321
S214403800FB60FB68002B02DDFB68FF2B02DD4FF000
S214403810FF3301E0FB681BB218461437BD465DF81F
S214403820047B704780B485B000AFF860B96013463B
S214403830FB71FB79002B02D14FF0FF331BE0FB6896
S214403840BA680C3253F8223023F47F41FB68BA68DA
S2144038500C3243F82210FB68BA680C3253F8222028
S214403860FB791B029BB242EA0301FB68BA680C3242
S21440387043F82210002318461437BD465DF8047BF3
S214403880704780B485B000AFF860B96011461A46FC
S2144038900B46FB711346BB71FB68BA680C3253F893
S2144038A0223099B2FB68BA680C3243F82210FB68A3
S2144038B0BA680C3253F82220FB791B0403F47F03CA
S2144038C0B97909060B4342EA0301FB68BA680C3231
S2144038D043F8221000BF1437BD465DF8047B70479E
S2144038E080B483B000AF78607B6808221A607B683B
S2144038F020221A607B6804221A6000BF0C37BD463F
S2144039005DF8047B7047000080B584B000AF7860F7
S21440391039600023FB607B684FF0FF329A627B6819
S2144039201B6A78680B4B984778680B4B98473B6800
S21440393059683B681B681A467868084B98470346A0
S214403940012B01D10123FB60FB6818461037BD46AA
S21440395080BD00BF753C4000E13840006139400002
S21440396080B489B000AFF860B9607A600023FB612C
S214403970BB68344A934201D901235DE0BB68324AB2
S214403980934237D97B68314AA2FB03239B0B033B08
S2144039907B61BA682E4B13449B007A68B2FBF3F304
S2144039A0033B3B6105E0FB690133FB617B695B08D8
S2144039B07B617B69FF2B09D9FB69062BF3D905E0B0
S2144039C0FB690133FB613B695B083B613B69FF2B4D
S2144039D002D9FB69062BF3D97B69DAB23B691B0235
S2144039E09BB21A43FB691B0403F4E0231A43FB68AB
S2144039F01A6120E0BB685B007A68B2FBF3F3033BD6
S214403A00BB6105E0FB690133FB61BB695B08BB61D9
S214403A10BB69FF2B02D9FB69062BF3D9BB69DAB227
S214403A20BB691B029BB21A43FB691B0403F4E023E9
S214403A301A43FB681A61002318462437BD465DF8D2
S214403A40047B7047801A060000DC0500F1197605F5
S214403A500012FD3F80B485B000AF786039603B68A7
S214403A60002B01D100231DE07B681B78FB603B6880
S214403A70012B09DDFB681B02FB607B6801331B786A
S214403A801A46FB681343FB603B68022B09DDFB6864
S214403A901B02FB607B6802331B781A46FB681343A5
S214403AA0FB60FB6818461437BD465DF8047B7047DC
S214403AB080B586B000AF786039603B68DB687B6174
S214403AC03B689B683B6147F23053FB607B69002B49
S214403AD001D1012359E07B6800225A603B681B7C79
S214403AE01B0403F4FE023B685B681B0203F440734E
S214403AF0134343F480527B685A607B680022DA6046
S214403B003A683B685B6819461046224B984702461F
S214403B107B68DA607B6801221A6029E07B681B6A52
S214403B20BB60BB6803F48073002B01D005232CE0F8
S214403B30FB685A1EFA60002B01D1092325E07B69F9
S214403B40012B02D17B6802221A60BB6803F0020395
S214403B50002B00D10CE03B695A1C3A617A68126B24
S214403B60D2B21A707B69013B7B6147F23053FB60EF
S214403B707B69002BD2D100BF7B681B6A03F0010330
S214403B80002BF9D07B681B6A002318461837BD46C1
S214403B9080BD00BF553A400080B586B000AF786023
S214403BA039603B68DB687B613B689B683B617B694F
S214403BB0002B01D1012356E07B6800225A603B6807
S214403BC01B7C1B0403F4FE023B685B681B0203F489
S214403BD040731A437B685A607B680022DA603A6812
S214403BE03B685B6819461046214B984702467B68FF
S214403BF0DA6019E07B681B6AFB60FB6803F480733D
S214403C00002B01D005232EE0FB6803F00403002BB5
S214403C1000D109E03B695A1C3A611B781A467B681A
S214403C205A637B69013B7B617B69002BE2D17B68F1
S214403C301B6AFB60FB6803F48073002B01D00523EE
S214403C4011E0FB6803F00403002B00D1EFE700BF50
S214403C507B6802221A6000BF7B681B6A03F0010380
S214403C60002BF9D0002318461837BD4680BD00BF4C
S214403C70553A400080B483B000AF78607B688022BD
S214403C801A607B681B6B00BF0C37BD465DF8047B33
S214403C90704780B485B000AF786039600023FB6021
S214403CA07B68AC221A603B681A683B685B68B2FB6C
S214403CB0F3F31B09FB60FB68002B03D0FB68B3F5EE
S214403CC0803F01D301230AE07B68FA681A623B68AA
S214403CD09A687B685A607B6850221A6000231846B0
S214403CE01437BD465DF8047B704780B483B000AFA0
S214403CF078600B46FB707B685B6903F00203002B21
S214403D0001D1012303E0FA787B68DA610023184684
S214403D100C37BD465DF8047B704780B483B000AF77
S214403D20786039607B685B6903F00103002B01D142
S214403D30012305E07B689B69DAB23B681A70002372
S214403D4018460C37BD465DF8047B704780B489B092
S214403D5000AFF860B9607A60BB681A017B689A4227
S214403D6002D81023FB6101E00823FB617B68DA0080
S214403D70FB69B96801FB03F35B081A44FB69B96841
S214403D8001FB03F3B2FBF3F3BB61BB69DB087B616A
S214403D90BB6903F007033B617B69002B03D07B695B
S214403DA0B3F5803F01D301230FE0FB69082B05D113
S214403DB0FB685B6843F40022FB685A603B691A0460
S214403DC07B691A43FB681A62002318462437BD46AF
S214403DD05DF8047B7047000080B582B000AF786025
S214403DE078680D4B98477B6800225A607B680022B3
S214403DF05A627B6800229A627868084B98477868CF
S214403E00074B98477868074B98477868064B98471B
S214403E1000BF0837BD4680BDB93F4000CB3E40009E
S214403E20FF3E4000193F4000353F400080B584B01B
S214403E3000AFF860B9607A60F8681A4B98471A4B3A
S214403E4000221A60BB68002B09D0BB681B687A68E2
S214403E501946F868154B98470346002B01D00123B6
S214403E601BE0BB685A68BB689B681A43BB681B6903
S214403E701A43BB68DB681A430B4B1B6813430A4A5A
S214403E801360094B1B68084A1360FB685A68064B68
S214403E901B681A43FB685A60002318461037BD4615
S214403EA080BD00BFD93D4000EC1140204D3D400054
S214403EB080B483B000AF78607B6840221A6000BF51
S214403EC00C37BD465DF8047B704780B483B000AFC6
S214403ED078607B6888221A6000BF0C37BD465DF864
S214403EE0047B704780B483B000AF78607B68102254
S214403EF01A6000BF0C37BD465DF8047B704780B43F
S214403F0083B000AF78607B6824221A6000BF0C370D
S214403F10BD465DF8047B704780B483B000AF7860E0
S214403F207B684FF480721A6000BF0C37BD465DF860
S214403F30047B704780B483B000AF78607B684FF4F2
S214403F4000221A6000BF0C37BD465DF8047B704700
S214403F5080B483B000AF786039607B685B6903F0FB
S214403F600203002B01D1012305E03B68C3F308029E
S214403F707B68DA61002318460C37BD465DF8047B43
S214403F80704780B483B000AF786039607B685B6907
S214403F9003F00103002B01D1012306E07B689B69F7
S214403FA0C3F308023B681A60002318460C37BD4628
S214403FB05DF8047B7047000080B483B000AF786043
S214403FC07B68044AC3F8E42000BF0C37BD465DF862
S214403FD0047B70470041535580B483B000AFEFF385
S214403FE010837B607B68002B0CBF01230023DBB271
S214403FF03B6072B6BFF35F8F044B00221A703B687B
S21440400018460C37BD465DF8047B70470A004020D2
S21440401080B483B000AF78607B68002B14BF012368
S2144040200023DBB218460C37BD465DF8047B70476C
S21440403080B582B000AF78607868074B98470346F3
S214404040002B05D0054B01221A70BFF35F8F62B676
S21440405000BF0837BD4680BD114040000A004020E2
S21440406080B584B000AF1E4BFB601E4BBB60FA6849
S214404070BB689A420CD007E0BB681A1DBA60FA6863
S214404080111DF96012681A60BB68174A9342F3D351
S214404090164BBB6004E0BB681A1DBA6000221A606B
S2144040A0BB68134A9342F6D3124BFB60124AFB6836
S2144040B023F07F039360114B98477860104A104B6B
S2144040C01B6843F470031360BFF34F8FBFF36F8FCB
S2144040D078680C4B98470C4B98470C4B9847FEE734
S2144040E03C6E4A0000004020B80B4020B80B4020F1
S2144040F0841240200000400000ED00E0D93F400020
S21440410088ED00E0314040007D694000795940002C
S21440411080B400AFFEE7000080B400AF524B1B6B8C
S21440412003F00303012B14D0012B02D3022B38D00B
S2144041307AE04E4B5B6903F08003002B04D04C4B77
S2144041404FF400421A606FE0494B4FF4FA421A604F
S2144041506AE0454B1B6A03F08073002B03D0444B48
S214404160444A1A6060E0424B434A1A603E4B1B6A20
S21440417003F07003102B04D0202B08D0002B0ED059
S2144041800EE03B4B1B685B00394A136008E0384B37
S2144041901A6813465B001344354A136000E000BFBC
S2144041A042E0314B1B6A03F08073002B03D0304B48
S2144041B0304A1A601CE02E4B2F4A1A602A4B1B6A64
S2144041C003F07003102B04D0202B08D0002B0ED009
S2144041D00EE0274B1B685B00254A136008E0244B23
S2144041E01A6813465B001344214A136000E000BF80
S2144041F01D4B1B6B03F00303022B14D11A4B9B6A17
S2144042001B0CC3F30A030133194A126802FB03F37B
S214404210174A1360144B9B6ADBB2154A1268B2FB0E
S214404220F3F3134A136000BF0F4B1B6B03F070038E
S214404230702B08D10E4B1B68104AA2FB03235B0869
S2144042400B4A13600AE0084B1B6B1B0903F007037D
S214404250074A126822FA03F3054A136000BFBD46B8
S2144042605DF8047B704700BF00060E4010180E40F5
S2144042700C004020001BB70000093D00ABAAAAAACC
S21440428080B483B000AF78607B681D4A934204D800
S2144042901C4B4FF080621A602BE07B681A4A9342B0
S2144042A003D8184B194A1A6023E07B68184A934291
S2144042B003D8144B174A1A601BE07B68164A934291
S2144042C003D8104B154A1A6013E07B68144A934291
S2144042D004D80C4B4FF004221A600AE07B68114A5F
S2144042E0934203D8074B104A1A6002E0054B0F4A28
S2144042F01A6000BF0C37BD465DF8047B704700BFB0
S214404300BFF35E01000C0E407FE7BD0200010004D3
S2144043103FDB1C0400020004FFCE7B0500030004C4
S214404320BFC2DA067FB6390800050004000600045E
S21440433080B485B000AF7860104BFB60104B1B68B4
S214404340002B02D10E4B0F4A1A600D4B1B68BB6008
S214404350BA687B681A44FB689A4202DD4FF0FF3326
S21440436006E0074B1A687B681344054A1360BB682F
S21440437018461437BD465DF8047B7047FCFF452061
S214404380F01140208834402080B483B000AF78607D
S2144043904FF0FF3318460C37BD465DF8047B704738
S2144043A080B483B000AF786039603B684FF4005209
S2144043B05A60002318460C37BD465DF8047B7047AC
S2144043C080B483B000AF7860012318460C37BD46F2
S2144043D05DF8047B704780B485B000AFF860B96084
S2144043E07A60002318461437BD465DF8047B704754
S2144043F080B483B000AF0346FB71094997F9073094
S2144044005B09FA7902F01F02012000FA02F241F835
S214404410232000BF0C37BD465DF8047B704700BFC5
S21440442000E100E080B483B000AF0346FB71094969
S21440443097F907305B09FA7902F01F02012000FA6B
S21440444002F2203341F8232000BF0C37BD465DF80A
S214404450047B704700E100E080B483B000AF0346C1
S214404460FB71094997F907305B09FA7902F01F0298
S214404470012000FA02F2603341F8232000BF0C37D7
S214404480BD465DF8047B704700E100E080B483B031
S21440449000AF03463960FB7197F90730002B0BDA03
S2144044A00D49FB7903F00F03043B3A68D2B2520140
S2144044B0D2B20B441A7609E0084997F907303A68B1
S2144044C0D2B25201D2B20B4483F8002300BF0C375D
S2144044D0BD465DF8047B704700ED00E000E100E07B
S2144044E080B483B000AF78607B68072B25D801A2E4
S2144044F052F823F0154540001B454000214540003A
S214404500274540002B4540002F454000334540009E
S214404510374540004FF4FA4310E04FF400430DE0B7
S2144045204FF400430AE0084B08E0084B06E0084B0F
S21440453004E0074B02E0064B00E0002318460C3729
S214404540BD465DF8047B704700093D0000127A00C6
S214404550001BB70080B500AF0620054B98470246C3
S21440456013469B0013449A001344184680BD00BF70
S214404570E144400080B500AF024B984703461846DA
S21440458080BD00BF5545400080B500AF024B984700
S21440459003465B08184680BD5545400080B582B04E
S2144045A000AF78607868034B984700BF0837BD4631
S2144045B080BD00BF2530400080B58CB000AF78602D
S2144045C039604F4B984703467B623B681B68BB622B
S2144045D03B689B68FB623B681B68FB603B685B68AC
S2144045E03B613B689B687B613B68DB68BB61002343
S2144045F0FB617B68434A934208D10720424B984769
S21440460007F1240319467868404B98477B68404A30
S214404610934208D108203C4B984707F1240319469B
S21440462078683A4B98477B683A4A934208D12C20A0
S214404630354B984707F1240319467868334B98471B
S2144046407B68354A934208D12D202F4B984707F177
S2144046502403194678682D4B98477B682F4A934227
S21440466008D12E20284B984707F12403194678682E
S214404670264B98477B682A4A934211D10D20224BFD
S21440468098471F4B9847024607F10C03194678682F
S214404690244B98477868244B98477868234B98472C
S2144046A07B68234A934211D10E20174B9847144BF0
S2144046B09847024607F10C0319467868194B984705
S2144046C07868194B98477868184B98477B68194A1A
S2144046D0934211D10F200C4B9847094B98470246FE
S2144046E007F10C03194678680E4B984778680E4BCE
S2144046F0984778680D4B984700BF3037BD4680BD19
S2144047008945400000080E409D454000933C4000CF
S214404710000A0E40001A0E40001C0E40001E0E40BE
S214404720004002402D3E4000B13E4000E53E400085
S2144047300080024000C0024080B582B000AF786082
S2144047400B46FB707B68364A93420AD100BFFB7823
S21440475019467868334B98470346002BF7D1012318
S2144047605AE07B68304A93420AD100BFFB7819462C
S21440477078682C4B98470346002BF7D101234BE033
S2144047807B682A4A93420AD100BFFB78194678686C
S214404790244B98470346002BF7D101233CE07B6827
S2144047A0234A93420AD100BFFB78194678681D4BCE
S2144047B098470346002BF7D101232DE07B681D4A1E
S2144047C093420AD100BFFB78194678681A4B98473F
S2144047D00346002BF7D101231EE07B68174A93421D
S2144047E00AD100BFFB7819467868134B98470346B2
S2144047F0002BF7D101230FE07B68114A93420AD180
S21440480000BFFB78194678680B4B98470346002B49
S214404810F7D1012300E0002318460837BD4680BD87
S21440482000080E40EB3C4000000A0E40001A0E40C6
S214404830001C0E4000400240513F400000800240B5
S21440484000C0024080B584B000AF78603960002375
S214404850FB607B68344A934207D100BF396878686A
S214404860324B98470346002BF8D17B68304A934238
S21440487007D100BF396878682C4B98470346002B11
S214404880F8D17B682B4A934207D100BF39687868D5
S214404890264B98470346002BF8D17B68264A93421E
S2144048A007D100BF39687868204B98470346002BED
S2144048B0F8D17B68214A93420DD100BF07F10C0323
S2144048C0194678681E4B98470346002BF6D1FB687E
S2144048D0DAB23B681A707B681A4A93420DD100BF21
S2144048E007F10C0319467868154B98470346002B8A
S2144048F0F6D1FB68DAB23B681A707B68124A93427C
S2144049000DD100BF07F10C03194678680C4B984749
S2144049100346002BF6D1FB68DAB23B681A7000BF3C
S2144049201037BD4680BD00BF00080E401B3D40000E
S214404930000A0E40001A0E40001C0E400040024086
S214404940833F40000080024000C0024080B582B0F5
S21440495000AF786039600F4A7B6813600E4B0F4A91
S2144049601A600F4B0F4A1A60396878680E4B9847A2
S2144049700E4B1B689B68002118460D4B98470B4B07
S2144049801B685B6800211846094B984700BF0837EC
S214404990BD4680BD48124020441240203947400062
S2144049A04012402045484000B9454000080240209B
S2144049B03D70400080B582B000AF78603960144BDF
S2144049C0984702463B681A603B6800225A727B68EA
S2144049D0104A934203D113200F4B98470EE07B6852
S2144049E00E4A934203D114200B4B984706E07B684F
S2144049F00B4A934202D12920074B9847396878687A
S214404A00084B9847034618460837BD4680BD00BF4A
S214404A1089454000008001409D45400000C001405F
S214404A20000006400939400080B400AF034B012225
S214404A301A7000BFBD465DF8047B7047F5114020F4
S214404A4080B400AF034B01221A7000BFBD465DF82C
S214404A50047B7047F611402080B400AF094B1B78AA
S214404A60DBB2002B0CBF01230023DBB21A46054BFA
S214404A701A70054B00221A7000BFBD465DF8047BD5
S214404A80704700BFF4114020F811402080B400AFBA
S214404A90034B01221A7000BFBD465DF8047B704789
S214404AA0F911402080B400AF084B1B68002B0CBFA8
S214404AB001230023DBB21A46044B1A60044B002243
S214404AC01A7000BFBD465DF8047B7047FC1140205D
S214404AD0F811402080B582B000AF1648164B984774
S214404AE078607B6803F00403002B03D00421114850
S214404AF0124B98477B6803F00203002B06D0022136
S214404B000C480E4B98470E4B01221A70012109485B
S214404B100A4B984708210748084B984710210548F4
S214404B20064B984720210348044B984700BF083758
S214404B30BD4680BD60180E40C1344000D9344000A8
S214404B400012402080B582B000AF0848084B984716
S214404B5078607B6803F00103002B02D0054B0122EE
S214404B601A7000BF0837BD4680BD00BF30180E40E3
S214404B7003034000011240202DE9F04387B000AF08
S214404B80F860B9607A603B6000237B6173E07B69C4
S214404B901B01FA6813441B881A463B689A4267D83A
S214404BA07B691B01FA6813441B8819467B691B0105
S214404BB0FA6813449B880B441A463B689A4257D37C
S214404BC07B691B01FA6813445B881A46BB6B9A42A2
S214404BD04ED87B691B01FA6813445B8819467B698B
S214404BE01B01FA6813449B880B441A46BB6B9A42D7
S214404BF03ED37A69BB681A602548264B9847012100
S214404C002548264B9847264B9847034619464FF06B
S214404C1000020B461446A60046EA93769D002B46B5
S214404C2034465B1844EB02044FEA840949EA937918
S214404C304FEA830843464C461946224641F22B73B8
S214404C404FF00004CD1842EB040628463146154C7A
S214404C5041F22C724FF00003A04703460C4618461C
S214404C60114B984701210C48104B984701230AE006
S214404C707B6901337B617A697B689A4287D30C48AB
S214404C80044B9847002318461C37BD46BDE8F083C2
S214404C90086A4A00CD69400000100E409125400049
S214404CA0754540006D66400001004020AD2540003F
S214404CB0106A4A0084B090B400AF07F1080484E854
S214404CC00F00FB6ABA6A02FB03F27B6B134418467A
S214404CD0BD4690BC04B0704790B58BB002AFF8604C
S214404CE0B9607A603B60BB68FB612FE0FB691B786C
S214404CF0FB76FB7EFA68127A9B1A7B61FB685B7ACE
S214404D00FA7E9A421FD8FB685A687B69DB001344D8
S214404D103B61786839683B695B689B881A463B69A3
S214404D205B68DB881C463B695B681B6800932346D0
S214404D300A4CA0473B695B689B881A463B6B13440A
S214404D407A6813447B60FB690133FB61FB691B781F
S214404D50002BCBD100BF2437BD4690BDB1244000C8
S214404D6080B584B000AF03463960FB800021184808
S214404D70184B9847FB8819461548174B98471448D0
S214404D80164B9847F86000BF1148144B98470246A8
S214404D90FB689A42F8D03A68FB68134419460C48B8
S214404DA00F4B984703200F4B984703200E4B9847CE
S214404DB0002103200D4B984703200D4B98474FF496
S214404DC0803103480B4B984700BF1037BD4680BD27
S214404DD030180E4005024000D5014000D502400084
S214404DE01D03400025444000594440008D44400087
S214404DF0F14340005D02400080B500AF094B4FF4E0
S214404E00F0721A60074B4FF4A0725A60054B064A80
S214404E109A60044B044ADA600248044B984700BF45
S214404E2080BD00BF4C124020FCFCFC0089214000A5
S214404E302DE9B0439EB000AF7860734A07F16C032B
S214404E4007CA03C31A80714B07F148041D460FCDAD
S214404E500FC40FCD0FC42B6823606D4A07F13C0387
S214404E6007CA03C31A706B4B07F118041D460FCDD3
S214404E700FC40FCD0FC42B68237007F10C0300221C
S214404E801A605A609A60644B3B614A233B7507F14F
S214404E900C0319466148624B9847034687F87730BB
S214404EA002234A225D4978685E4CA047034687F84D
S214404EB077300022062178685B4B984703460122EC
S214404EC019467868594B9847594B984703461946B0
S214404ED04FF000020B4614464FEA841949EA93699C
S214404EE04FEA831843464C465B1844EB020441F2B3
S214404EF02B714FF0000213EB010844EB02094046C9
S214404F0049464C4C41F22C724FF00003A0470346F2
S214404F100C461846484B9847002207217868424B73
S214404F2098470346202219467868404B9847002207
S214404F30072178683C4B9847034601339BB21022C2
S214404F4019467868394B9847002207217868364BCF
S214404F509847034602339BB24B2219467868334B38
S214404F6098470022072178682F4B9847034603331B
S214404F709BB28422194678682C4B98470022082119
S214404F807868294B98470346194607F16C031A463A
S214404F9078682A4B9847002209217868224B984720
S214404FA00346194607F148031A467868234B984744
S214404FB000222E2178681C4B98470346194607F175
S214404FC03C031A4678681D4B98470022382178687B
S214404FD0154B98470346194607F118031A46786852
S214404FE0164B98470022062178680F4B9847034691
S214404FF002339BB20122194678680C4B984700BF93
S2144050007837BD46BDE8B0831C6A4A00286A4A0025
S2144050104C6A4A00586A4A00801A060000800140DE
S214405020B549400039094000F1094000D50A400022
S214405030754540006D66400001004020590A40001A
S21440504084B090B5ADF5057D02AF07F5067484E8EB
S2144050500F00D7F83C32D7F8382202FB03F2D7F8D5
S21440506044321344C7F804323B1DD7F804220A4999
S21440507018460A4B9847391D012300930C230C22EF
S2144050800748084CA04700BF07F50377BD46BDE874
S214405090904004B0704700BF7C6A4A00DD71400013
S2144050A048C94400D94C400080B483B000AF786013
S2144050B07A6813469B0013449B011B0BC3F5A073F1
S2144050C018460C37BD465DF8047B704780B483B005
S2144050D000AF78607A6813461B019B1A5B011B0B76
S2144050E0C3F5F07318460C37BD465DF8047B704731
S2144050F080B5CEB000AF07F10C03186007F1080387
S21440510019603B1D1A6007F16403D222002118463D
S2144051101E4B9847002387F8373107F1580207F1AE
S2144051200C03114618681A4B98470346002B05D1C6
S21440513097F83731013387F8373100E000BF07F181
S2144051400C031868134B984703461A4697F83731AE
S214405150022B94BF01230023DBB21340002BDCD18B
S21440516097F83731002B0BD007F1640318460A4BEB
S2144051709847024607F1640319460848084B984783
S21440518000BF07F59C77BD4680BD00BF656F4000F9
S214405190E90B4000410B4000417340000080024054
S2144051A04D11400090B5D5B002AF07F10C03186022
S2144051B007F1080319603B1D1A6007F16803D22205
S2144051C000211846664B9847002387F8673007F15A
S2144051D05C0207F10C0311461868624B9847034679
S2144051E0002B11D007F10C0318685F4B9847034615
S2144051F01A4697F86730022B94BF01230023DBB290
S2144052001340002BE3D196E0B7F860301846574B72
S2144052109847C7F84401B7F85E301846544B98474D
S214405220C7F8400107F11000D7F84431D7F84021BD
S2144052305049514CA04797F85D30C7F83C3197F835
S2144052405D3019464D484E4B9847D7F83C313B2B7E
S21440525021DC4C4B1B78DBB2002B5ED13A1D07F1AC
S214405260580107F10800D7F844310093D7F8403189
S21440527012680068444CA0470346002B4DD0BB6DD7
S214405280022B4AD0BB6D1B0107F10802126813447B
S214405290DB68984741E097F85D30902B3DD1394B1D
S2144052A01B78DBB2002B38D03A1D07F1670107F1B7
S2144052B00800D7F844310093D7F8403112680068A8
S2144052C0314CA0470346002B0ED097F86730022B90
S2144052D00AD12E4B1B6819462D48294B98472B4B15
S2144052E01B680133294A1360284B1B68132B14DDB7
S2144052F0264B00221A6097F867301B0107F1080218
S21440530012681344DB68984707F1080107F10C035D
S2144053100122096818681F4B984707F1100207F1E9
S2144053206803114618461C4B984797F86730013378
S214405330DBB287F8673097F86730002B0BD007F161
S21440534068031846154B9847024607F16803194606
S2144053501348144B984700BF07F5A677BD4690BD47
S214405360656F4000E90B4000410B4000A9504000EB
S214405370CD504000906A4A00DD714000A06A4A0065
S214405380CD694000F4114020794B40000412402083
S214405390BC6A4A00F1504000297240004173400008
S2144053A0008002404D11400090B583B002AF0A2005
S2144053B01C4B98470C201B4B98470B20194B984783
S2144053C001234FF400624FF020511748174CA04776
S2144053D0002300930023002201211548154CA047C6
S2144053E000230093002300224FF480711248114C92
S2144053F0A047124B009370234FF400620A210A48DC
S2144054000F4CA0474FF4006107480E4B98470A20C0
S2144054100D4B984704210A200C4B984700BF043791
S214405420BD4690BD25304000000E0E40BD274000D2
S21440543000100E405927400000120E408D4A400092
S214405440492C4000F5284000F14340008D44400080
S21440545090B583B002AF0220144B98470021144801
S214405460144B98470C2300931323032240F2E27117
S2144054700F48114CA04700232D220F210C480F4CFB
S214405480A04702200E4B984702200E4B984700211B
S21440549002200D4B984702200C4B984702210448A7
S2144054A00B4B984700BF0437BD4690BD25304000A3
S2144054B060180E4061304000813340007931400032
S2144054C025444000594440008D444000F14340008C
S2144054D097304000F0B58DB00CAF6248624B9847AD
S2144054E040F23F1340F2DF12002100205F4CA047FD
S2144054F05F4B1B8818465E4B5B8819465C4B9B6827
S2144055009B881A465A4B9B68DB881C46584B9B68C0
S2144055101B6800932346574CA047574B1B8818469A
S214405520554B5B881946544B9B689B881A46524B92
S2144055309B68DB881C46504B9B681B680093234641
S2144055404C4CA0474D4B1B8818464C4B5B88194625
S2144055504A4B9B689B881A46484B9B68DB881C4690
S214405560464B9B681B6800932346424CA047444BDF
S2144055701B881846424B5B881946414B9B689B8864
S2144055801A463F4B9B68DB881C463D4B9B681B6816
S21440559000932346374CA0473248334B9847384B06
S2144055A01B881846364B5B881A46354B9B881344F7
S2144055B014331946324B1B881A46314B9B8813448A
S2144055C028331C462E4B5B881A462D4B9B8813442B
S2144055D028332246254CA0470020234B9847284B8B
S2144055E01B881946264B5B881A46254B9B881344D6
S2144055F003F114020123009313460A462149224828
S214405600224CA047224B1B881846214B5B881946E4
S2144056101F4B9B689B881A461D4B9B68DB881C4625
S2144056201B4B9B681B6800932346124CA0470020E8
S2144056300D4B9847174E6D4606F110040FCC0FC51C
S2144056400FCC0FC594E8070085E8070096E80F00E2
S214405650114CA047114B01221A7000BF0437BD46BB
S214405660F0BD00BFFCFCFC00FD224000D5234000FE
S2144056703C014020B12440004C0140205C014020C9
S2144056809C014020DC6A4A0048C94400D94C40008E
S2144056906C0140204C00402041504000F811402012
S2144056A090B583B002AF244B1B881846224B5B88CC
S2144056B01946214B9B689B881A461F4B9B68DB8884
S2144056C01C461D4B9B681B68009323461B4CA047FB
S2144056D01B4B1B8818461A4B5B881946184B9B6811
S2144056E09B881A46164B9B68DB881C46144B9B6867
S2144056F01B6800932346114CA047124B1B88184644
S214405700104B5B8819460F4B9B689B881A460D4B7F
S2144057109B68DB881C460B4B9B681B6800932346A4
S214405720064CA047084B01221A60084B01221A700B
S21440573000BF0437BD4690BD6C014020B1244000F8
S2144057408C014020D8014020FC114020F811402018
S21440575090B583B002AF1748174B98474FF4FA738B
S2144057604FF4FA7200210020144CA047144B1B88BB
S2144057701846134B5B881946114B9B689B881A4604
S2144057800F4B9B68DB881C460D4B9B681B68009341
S21440579023460C4CA04703230093912332220A4908
S2144057A00A480B4CA0470B4B01221A7000BF043727
S2144057B0BD4690BDFCFCFC00FD224000D5234000C9
S2144057C07C014020B1244000E46A4A00A092430095
S2144057D0D94C4000F811402090B583B002AF244821
S2144057E0244B98474FF4FA734FF4FA720021002086
S2144057F0214CA0474FF47C001E4B98470323009350
S214405800912332221D491E481E4CA0471E4B1B8822
S21440581018461D4B5B8819461B4B9B689B881A464F
S214405820194B9B68DB881C46174B9B681B6800938C
S2144058302346164CA047164B1B881846144B5B88CD
S2144058401946134B9B689B881A46114B9B68DB880E
S2144058501C460F4B9B681B68009323460B4CA04787
S2144058600C4B01221A7000BF0437BD4690BD00BFE6
S214405870FCFCFC00FD224000D5234000F46A4A00B0
S214405880A0924300D94C40008C014020B1244000F7
S2144058906C014020F811402082B0B0B590B00CAFFB
S2144058A03C1D84E807007B62BB881846FB88194687
S2144058B0FB689B881A46FB68DB881C46FB681B68AF
